:100000000C945D000C9485000C9485000C94850084
:100010000C9485000C9485000C9485000C9485004C
:100020000C9485000C9485000C9485000C9485003C
:100030000C9485000C9485000C9485000C9485002C
:100040000C94FA060C9485000C94C8060C94A20635
:100050000C9485000C9485000C9485000C9485000C
:100060000C9444070C948500000000002400270035
:100070002A0000000000250028002B0004040404CE
:100080000404040402020202020203030303030342
:10009000010204081020408001020408102001021F
:1000A00004081020000000080002010000030407FB
:1000B0000000000000000000630811241FBECFEF05
:1000C000D8E0DEBFCDBF11E0A0E0B1E0E4EAF9E1A5
:1000D00002C005900D92AA3BB107D9F723E0AAEB25
:1000E000B1E001C01D92A833B207E1F710E0CDE501
:1000F000D0E004C02197FE010E94CA0CCC35D10784
:10010000C9F70E94AD080C94D00C0C94000008951F
:100110000895AF92BF92CF92DF92EF92FF920F932A
:100120001F93CF93DF936C017B018B01040F151F8D
:10013000EB015E01AE18BF08C017D10759F06991F5
:10014000D601ED91FC910190F081E02DC601099559
:10015000892B79F7C501DF91CF911F910F91FF9006
:10016000EF90DF90CF90BF90AF900895FC01538D3A
:10017000448D252F30E0842F90E0821B930B541781
:1001800010F0CF96089501970895FC01918D828D0E
:10019000981761F0A28DAE0FBF2FB11D5D968C91A7
:1001A000928D9F5F9F73928F90E008958FEF9FEFE6
:1001B0000895FC01918D828D981731F0828DE80FA2
:1001C000F11D858D90E008958FEF9FEF0895FC015C
:1001D000918D228D892F90E0805C9F4F821B910929
:1001E0008F739927089583E892E00E94E70021E049
:1001F000892B09F420E0822F089580E090E0892B7C
:1002000029F00E94F30081110C9400000895FC0174
:10021000A48DA80FB92FB11DA35ABF4F2C91848D67
:1002200090E001968F739927848FA689B7892C93C4
:10023000A089B1898C91837080648C93938D848D17
:10024000981306C00288F389E02D80818F7D80831A
:100250000895EF92FF920F931F93CF93DF93EC01DA
:1002600081E0888F9B8D8C8D98131AC0E889F9895D
:10027000808185FF15C09FB7F894EE89FF89608360
:10028000E889F98980818370806480839FBF81E0E1
:1002900090E0DF91CF911F910F91FF90EF90089523
:1002A000F62E0B8D10E00F5F1F4F0F731127E02EFE
:1002B0008C8D8E110CC00FB607FCFACFE889F98936
:1002C000808185FFF5CFCE010E940701F1CFEB8D34
:1002D000EC0FFD2FF11DE35AFF4FF0829FB7F8940A
:1002E0000B8FEA89FB8980818062CFCFCF93DF9328
:1002F000EC01888D8823B9F0AA89BB89E889F9893E
:100300008C9185FD03C0808186FD0DC00FB607FC72
:10031000F7CF8C9185FFF2CF808185FFEDCFCE01A5
:100320000E940701E9CFDF91CF91089590E0FC0191
:10033000EC55FF4F2491FC01E057FF4F3491FC0135
:10034000E458FF4FE491EE23C9F0222339F0233023
:1003500001F1A8F4213019F1223029F1F0E0EE0F7B
:10036000FF1FEE58FF4FA591B4918FB7F894EC9111
:10037000611126C030953E233C938FBF08952730EE
:10038000A9F02830C9F0243049F7809180008F7D92
:1003900003C0809180008F7780938000DFCF84B589
:1003A0008F7784BDDBCF84B58F7DFBCF8091B0008C
:1003B0008F778093B000D2CF8091B0008F7DF9CF3E
:1003C0003E2BDACFCF93DF9390E0FC01E057FF4F55
:1003D000249184589F4FFC0184918823D1F090E0B0
:1003E000880F991FFC01E859FF4FA591B491FC01BA
:1003F000EE58FF4FC591D49161110EC09FB7F8948C
:100400008C91E22FE0958E238C932881E223E88360
:100410009FBFDF91CF9108958FB7F894EC91E22BB5
:10042000EC938FBFF6CF8E50806480937C008091D8
:100430007A00806480937A0080917A0086FDFCCFF8
:10044000809178009091790008953FB7F894809159
:10045000710290917202A0917302B091740226B55C
:10046000A89B05C02F3F19F00196A11DB11D3FBFEC
:10047000BA2FA92F982F8827BC01CD01620F711DBB
:10048000811D911D42E0660F771F881F991F4A95B5
:10049000D1F708958F929F92AF92BF92CF92DF9241
:1004A000EF92FF924B015C010E9425026B017C01DF
:1004B0000E9425026C197D098E099F09683E7340D0
:1004C00081059105A8F321E0821A9108A108B108DD
:1004D00088EEC80E83E0D81EE11CF11C8114910443
:1004E000A104B10429F7FF90EF90DF90CF90BF9067
:1004F000AF909F908F90089508952091FB01260F53
:100500003327331F21323105ECF420914402FC01E2
:1005100090E080E0243069F082E00895A091FB0132
:100520002191AC0145525E4FA40FB52FB11D2C9304
:100530000196861798F38091FB01680F6093FB0189
:1005400080E0089581E008951092440281E0809354
:10055000430210921E0261E082E10E94960161E076
:1005600083E10E949601E9EBF0E080818E7F808339
:1005700080818D7F808388E48093B80085E48093B8
:10058000BC000895CF93DF9391E09093DA01882324
:10059000B9F0C091B800D091BA008091BC008A7BBC
:1005A0008093BC0060E082E10E94960160E083E1FC
:1005B0000E9496010E94A402D093BA00C093B80092
:1005C000DF91CF9108950895E0917C0280917B02A4
:1005D000E81730F4F0E0E654FE4F808190E0089593
:1005E0008FEF9FEF089590917C0280917B022FEF17
:1005F0003FEF981748F4E92FF0E0E654FE4F2081D2
:1006000030E09F5F90937C02C901089580917B0246
:1006100090917C02891B990B0895CF92DF92EF9203
:10062000FF920F931F93CF93DF937C01CB018A013D
:1006300020914A02222389F0EB016B01C40ED51EE2
:10064000CC15DD0569F06991D701ED91FC91019020
:10065000F081E02DC7010995F3CF642F0E947D0240
:10066000C801DF91CF911F910F91FF90EF90DF9024
:10067000CF900895CF93DF931F92CDB7DEB76983F4
:1006800020914A022223F9F020917902203258F079
:1006900021E030E0FC013383228390E080E00F9082
:1006A000DF91CF91089580917A02E82FF0E0E55B29
:1006B000FD4F998190838F5F80937A0280937902B6
:1006C00081E090E0ECCF61E0CE0101960E947D02D6
:1006D000F7CFCF92DF92EF92FF920F931F93CF93BA
:1006E000DF93FC01C48121E020934A02C0936B0296
:1006F00010927A02109279028385682B80E293E04F
:100700000E943A03D0917902D13208F092C00E943F
:1007100025026B017C0180914402811165C082E059
:100720008093440281E0809343028FEF80934202E2
:1007300010924102D0934002ABE4B2E0E0E2F2E07A
:1007400080E0D81385C010921F0280911F02CC0F49
:10075000C82BC0931F0280911E02813009F07CC01B
:1007600010921E020E9425026B017C0180911F02E3
:100770008093BB008091460290914702A09148026D
:10078000B0914902892B8A2B8B2B99F00E9425026C
:10079000009146021091470220914802309149028F
:1007A0006C197D098E099F09061717072807390755
:1007B000E0F18091BC0083FDD9CF85EC8093BC0033
:1007C0000E9425026B017C0180914402823009F471
:1007D00045C0809142028F3F61F180914202803298
:1007E00041F18091420225C08091460290914702DA
:1007F000A0914802B0914902892B8A2B8B2B09F4D6
:100800008ACF0E9425020091460210914702209152
:100810004802309149026C197D098E099F0906171B
:1008200017072807390708F076CF809145020E9404
:10083000C20210927A021092790210924A02DF915B
:10084000CF911F910F91FF90EF90DF90CF9008957F
:100850009D9191938F5F75CF85EEB0CF80914602C9
:1008600090914702A0914802B0914902892B8A2BAE
:100870008B2B09F4A9CF0E9425020091460210910A
:10088000470220914802309149026C197D098E0976
:100890009F09061717072807390708F095CFC5CF16
:1008A00090E080E00895EF92FF920F931F93CF9313
:1008B000DF9328EC289F7001299FF00C1124D0E0D1
:1008C000C0E00BE31FE161E082E00E949601C801F5
:1008D0000197F1F760E082E00E949601C80101975C
:1008E000F1F72196EC16FD0671F7DF91CF911F917C
:1008F0000F91FF90EF900895EF92FF920F931F9347
:10090000CF93DF9328EC289F7001299FF00C1124CE
:10091000D0E0C0E00BE31FE161E083E00E949601BC
:10092000C8010197F1F760E083E00E949601C801D9
:100930000197F1F72196EC16FD0671F7DF91CF9143
:100940001F910F91FF90EF9008950F931F93CF93F6
:100950008C01C62F0E9469036C2F6460C8010E943D
:1009600069036C2F6B7FC8010E94690383EC90E0E0
:100970000197F1F7CF911F910F9108950F931F9356
:10098000CF93DF938C01D62FC42F607F642B0E94FE
:10099000A50480E1D89FB00111246C2BC801DF9120
:1009A000CF911F910F910C94A504CF93DF93CDB7F6
:1009B000DEB728970FB6F894DEBF0FBECDBF98E024
:1009C000E0E0F1E0DE01119601900D929A95E1F7D9
:1009D00090913503961708F46FEF262F30E0220F21
:1009E000331F41E050E04C0F5D1F240F351FF9010C
:1009F0006081680F606840E08CE293E028960FB653
:100A0000F894DEBF0FBECDBFDF91CF910C94BE0432
:100A100041E00E94BE0481E090E00895FB01019056
:100A20000020E9F73197AF01461B570BDC01ED9130
:100A3000FC910280F381E02D0994CF93DF93BC01F8
:100A400083E892E00E940E05EC0168E371E083E820
:100A500092E00E940E058C0F9D1FDF91CF910895AB
:100A60000F931F93CF93DF9360E087E00E9496017E
:100A70008BE391E00E941D05C2E3D0E00BEF14E38D
:100A800061E084E00E949601C8010197F1F760E0FF
:100A900084E00E949601C8010197F1F7219781F740
:100AA000DF91CF911F910F9108950F931F93CF93D3
:100AB000DF9361E087E00E9496018DE491E00E945F
:100AC0001D05C2E3D0E00BEF14E361E084E00E9477
:100AD0009601C8010197F1F760E084E00E94960159
:100AE000C8010197F1F7219781F7DF91CF911F910D
:100AF0000F9108954F925F926F927F928F929F9283
:100B0000AF92BF92CF92DF92EF92FF920F931F931B
:100B1000CF93DF93CDB7DEB7A1970FB6F894DEBFC2
:100B20000FBECDBF8C016B01770FEE08FF08F7FEFB
:100B300049C0DC01ED91FC910190F081E02D6DE266
:100B400009955C0122273327A9012C193D094E097B
:100B50005F0919A2FE01B1967F019AE0492E512C3E
:100B6000612C712CCA01B901A30192010E94920C5F
:100B7000605DD7016E937D01211531054105510559
:100B800089F790E080E0109721F0BD01C8010E9434
:100B90000E058A0D9B1DA1960FB6F894DEBF0FBE01
:100BA000CDBFDF91CF911F910F91FF90EF90DF901C
:100BB000CF90BF90AF909F908F907F906F905F90FD
:100BC0004F900895A701960119A2FE01B1967F01E9
:100BD0008AE0882E912CA12CB12CCA01B901A50163
:100BE00094010E94920C605DD7016E937D012115E6
:100BF00031054105510589F790E080E0109759F2E1
:100C0000BD01C8010E940E05C6CFCF93DF93BC0182
:100C100083E892E00E947A05EC0168E371E083E8E2
:100C200092E00E940E058C0F9D1FDF91CF910895D9
:100C30000C940E0560917F027091800283E892E02F
:100C40000E947A0566E771E083E892E00E94180648
:100C5000609181027091820283E892E00E947A059D
:100C600066E771E083E892E00E94180680917D02B9
:100C700090917E020E94050660E080E00E94D5040B
:100C80006EE571E08CE293E00E94180661E080E07E
:100C90000E94D50460918102709182028CE293E0FF
:100CA0000E947A0561E086E00E94D50460917F028F
:100CB000709180028CE293E00E947A0561E08CE002
:100CC0000E94D50460917D0270917E028CE293E0D7
:100CD0000C947A0585ED8093BC008091460290913A
:100CE0004702A0914802B09149020796A11DB11D8B
:100CF00023E0B695A795979587952A95D1F72091EA
:100D0000BC0024FD03C010924402089540914602A5
:100D1000509147026091480270914902452B462B41
:100D2000472B69F30097A105B10541F025E32A950A
:100D3000F1F700000197A109B109E1CF80914502C7
:100D40000C94C2021F920F920FB60F9211242F9390
:100D50003F934F935F936F937F938F939F93AF9343
:100D6000BF93EF93FF9383E892E00E940701FF9106
:100D7000EF91BF91AF919F918F917F916F915F9113
:100D80004F913F912F910F900FBE0F901F9018958C
:100D90001F920F920FB60F9211242F938F939F9350
:100DA000EF93FF93E0919302F09194028081E091A0
:100DB0009902F0919A0282FD1BC0908180919C0261
:100DC0008F5F8F7320919D02821741F0E0919C020A
:100DD000F0E0ED57FD4F958F80939C02FF91EF91CE
:100DE0009F918F912F910F900FBE0F901F9018958C
:100DF0008081F4CF1F920F920FB60F9211242F9380
:100E00003F938F939F93AF93BF9380916D02909187
:100E10006E02A0916F02B091700230916C0223E0DB
:100E2000230F2D3758F50196A11DB11D20936C029B
:100E300080936D0290936E02A0936F02B093700244
:100E40008091710290917202A0917302B09174022C
:100E50000196A11DB11D8093710290937202A0931F
:100E60007302B0937402BF91AF919F918F913F91A4
:100E70002F910F900FBE0F901F90189526E8230F0B
:100E80000296A11DB11DD2CF1F920F920FB60F92E5
:100E900011242F933F934F935F936F937F938F937F
:100EA0009F93AF93BF93EF93FF938091B900887F97
:100EB000803609F44AC0F0F5883209F4A7C018F565
:100EC000803109F49BC0B8F4882309F4F9C0883054
:100ED00009F494C0FF91EF91BF91AF919F918F91D1
:100EE0007F916F915F914F913F912F910F900FBE26
:100EF0000F901F901895883109F488C0803251F7FF
:100F00008093420214C0803409F49DC040F48033C1
:100F1000B9F38833F9F68093420285ECB0C080358E
:100F200009F485C0883509F496C0883499F60E9482
:100F30006A06D0CF883909F48CC038F5883729F093
:100F400050F4883611F0803729F683E0809344020C
:100F500010921D0257C0883809F47BC0803919F0FF
:100F6000803809F0B7CF80911D02803208F071C03F
:100F7000E0911D0281E08E0F80931D028091BB00E5
:100F8000F0E0E350FE4F80833DC0803B39F0E0F459
:100F9000803A09F479C0883A09F09CCF84E08093C4
:100FA00044021092FC011092FB01E0917702F09153
:100FB000780209958091FB0181110FC081E0809337
:100FC000FB011092DB0109C0803C09F4A6CF883CEC
:100FD00009F4A3CF883B09F07DCFE091FC0181E0CB
:100FE0008E0F8093FC01F0E0E552FE4F80818093EC
:100FF000BB009091FC018091FB0129C080911F02F0
:101000008093BB0085EC8093BC0064CF909141023B
:1010100080914002981758F5E091410281E08E0FCF
:1010200080934102F0E0E05EFD4F8081E9CFE091E6
:10103000410281E08E0F809341028091BB00F0E07D
:10104000E05EFD4F808390914102809140029817AD
:10105000C8F285E8D8CFE091410281E08E0F8093FD
:1010600041028091BB00F0E0E05EFD4F8083809103
:10107000430281115CCF81E080931E0284EA809359
:10108000BC001092440226CF85EC8093BC001092E5
:10109000440280911D02803230F4E0911D02F0E0A4
:1010A000E350FE4F108260911D0270E0E0917502E6
:1010B000F09176028DEF91E0099510921D020ACF12
:1010C0001092420234CFE3E8F2E01382128288EEFB
:1010D00093E0A0E0B0E084839583A683B7832CE0FF
:1010E00031E03183208325EC30E03587248724EC00
:1010F00030E03787268720EC30E0318B208B21ECE5
:1011000030E0338B228B22EC30E0358B248B26ECC5
:1011100030E0378B268B118E128E138E148EE0E208
:10112000F3E01382128284839583A683B7838EE1D2
:1011300091E091838083ECE2F3E01382128280E3FA
:1011400091E09183808387E2848380E1808782E0DD
:101150008187128688E083870895789484B58260B9
:1011600084BD84B5816084BD85B5826085BD85B54B
:10117000816085BD80916E00816080936E001092C9
:101180008100809181008260809381008091810044
:1011900081608093810080918000816080938000D5
:1011A0008091B10084608093B1008091B000816033
:1011B0008093B00080917A00846080937A0080915F
:1011C0007A00826080937A0080917A0081608093B7
:1011D0007A0080917A00806880937A001092C10032
:1011E00061E085E00E94E20161E082E00E94E201AC
:1011F00061E086E00E94E20161E083E00E94E2019A
:1012000060E089E00E94E20160E08AE00E94E20181
:1012100010927C0210927B0210927A021092790254
:101220000E94A40287E890E090937802809377026E
:1012300088E890E0909376028093750210923103D3
:1012400080913503823018F098E0909331039091AB
:101250003603992339F0813029F480913103846079
:101260008093310362E370E080E090E00E944A02E4
:10127000609137038CE293E00E94690368EE73E0AB
:1012800080E090E00E944A0260E38CE293E00E94DA
:10129000A504CBE4D6E4CE010197F1F760E38CE23C
:1012A00093E00E94A5042197F1F760E38CE293E0BC
:1012B0000E94A50483E592E00197F1F760E28CE2D9
:1012C00093E00E94A50460913103606240E08CE2EB
:1012D00093E00E94BE0484E08093320340E06CE01F
:1012E0008CE293E00E94BE0440E061E08CE293E077
:1012F0000E94BE04CBE3DFE1CE010197F1F712E0DB
:101300001093330340E066E08CE293E00E94BE0459
:1013100040E062E08CE293E00E94BE042197F1F786
:1013200088E08093370360E08CE293E00E946903D9
:10133000E0919302F09194021083E0918F02F0917A
:1013400090021082E0919102F09192028FEC8083E2
:1013500010929B02E0919702F091980286E08083C0
:10136000E0919502F0919602808180618083E09106
:101370009502F0919602808188608083E0919502C9
:10138000F0919602808180688083E0919502F091CF
:10139000960280818F7D808344244A9483E0582E76
:1013A000612C712C90E0C92E90E0D92EC1E0D0E0E4
:1013B00003E010E025E0A22EB12C32E0E32EF12C68
:1013C0000E941A068EE00E94130228E53BE1DC0130
:1013D0000E94C30CA30192010E94730C30938202FD
:1013E000209381028FE00E94130224EB30E0DC01A5
:1013F0000E94C30CA30192010E94730C30938002DF
:1014000020937F020E941A0680917D0290917E02B5
:101410008230910509F4DFC0CCF4009709F45FC075
:10142000019709F495C00E941A0661E070E080E01F
:1014300090E00E944A02C114D10411F20E94F3000C
:10144000882309F4BDCF0E940000BACF84309105F3
:1014500009F4C3C10CF449C1059729F780917F02B3
:10146000909180028B3491053CF0809181029091A3
:1014700082028E3E9240BCF60E9455058BE991E0B7
:101480000E941D0568E771E083E892E00E9418065B
:1014900060917F027091800283E892E00E947A0559
:1014A00060E871E083E892E00E9418068091810272
:1014B000909182020E94050660E086E00E949601FB
:1014C00084E090E00E947C0460E085E00E94960148
:1014D00084E090E00E94530484E090E03BC10E94CD
:1014E00055056EE671E083E892E00E94180668E711
:1014F00071E083E892E00E94180660917F0270918B
:10150000800283E892E00E947A0560E871E083E857
:1015100092E00E94180680918102909182020E94BE
:10152000050660E085E00E94960161E086E00E9489
:10153000960184E090E00E94530484E090E00E94D1
:101540007C04D0937E02C0937D020E9430056BCF55
:10155000809181029091820220917F0230918002DD
:101560002A3131058CF1853C29E092076CF10E940B
:10157000550587E891E00E941D0568E771E083E862
:1015800092E00E94180660917F027091800283E8C9
:1015900092E00E947A0560E871E083E892E00E94A0
:1015A000180680918102909182020E94050660E0F7
:1015B00086E00E94960188E090E00E947C04F09210
:1015C0007E02E0927D02C1CF8E3E92400CF02BCF86
:1015D0000E94550528CF809181029091820220912E
:1015E0007F0230918002853C49E094070CF445C0AD
:1015F000293231050CF441C00E94550581E991E082
:101600000E941D0568E771E083E892E00E941806D9
:1016100060917F027091800283E892E00E947A05D7
:1016200060E871E083E892E00E94180680918102F0
:10163000909182020E94050661E086E00E94960178
:1016400084E090E00E947C0461E085E00E949601C5
:1016500084E090E00E94530484E090E00E947C04C7
:1016600060E086E00E94960160E085E00E949601BD
:1016700010937E0200937D0268CF2931310524F05A
:101680008E3E92400CF0CFCE0E9455058EE691E042
:101690000E941D0568E771E083E892E00E94180649
:1016A00060917F027091800283E892E00E947A0547
:1016B00060E871E083E892E00E9418068091810260
:1016C000909182020E94050661E086E00E949601E8
:1016D00088E090E00E947C04D0937E02C0937D025B
:1016E00060E086E00E94960130CF80918102909167
:1016F000820220917F0230918002853C49E094076C
:1017000094F12D3331057CF10E9455058BE991E070
:101710000E941D0568E771E083E892E00E941806C8
:1017200060917F027091800283E892E00E947A05C6
:1017300060E871E083E892E00E94180680918102DF
:10174000909182020E94050660E086E00E94960168
:1017500088E090E00E947C0484E090E090937E0218
:1017600080937D02F2CE2832310524F08E3E9240E5
:101770000CF059CE0E94550585EA91E00E941D05A6
:1017800068E771E083E892E00E94180660917F02AA
:101790007091800283E892E00E947A0560E871E02F
:1017A00083E892E00E941806809181029091820263
:1017B0000E94050660E086E00E94960184E090E0C9
:1017C0000E947C0460E085E00E94960184E090E045
:1017D0000E94530484E090E0F0CE809181029091C9
:1017E000820220917F0230918002853C49E094077B
:1017F0000CF445C02C3431050CF441C00E94550551
:101800008FEA91E00E941D0568E771E083E892E0AD
:101810000E94180660917F027091800283E892E036
:101820000E947A0560E871E083E892E00E94180661
:1018300080918102909182020E94050661E086E01B
:101840000E94960184E090E00E947C0461E085E0C3
:101850000E94960184E090E00E94530484E090E0AE
:101860000E947C0460E085E00E94960160E086E0D2
:101870000E949601B0927E02A0927D0266CE2C3329
:10188000310524F08E3E92400CF0CDCD0E945505DE
:1018900081E991E00E941D0568E771E083E892E02C
:1018A0000E94180660917F027091800283E892E0A6
:1018B0000E947A0560E871E083E892E00E941806D1
:1018C00080918102909182020E94050661E086E08B
:1018D0000E94960188E090E00E947C0410937E02B2
:1018E00000937D02FDCE052E97FB1EF400940E940E
:1018F0008A0C57FD07D00E94920C07FC03D04EF4CF
:101900000C948A0C50954095309521953F4F4F4F40
:101910005F4F089590958095709561957F4F8F4F9B
:101920009F4F0895A1E21A2EAA1BBB1BFD010DC0FB
:10193000AA1FBB1FEE1FFF1FA217B307E407F5077F
:1019400020F0A21BB30BE40BF50B661F771F881F5B
:10195000991F1A9469F760957095809590959B01F1
:10196000AC01BD01CF010895A29FB001B39FC0019A
:10197000A39F700D811D1124911DB29F700D811DBB
:101980001124911D08950E94B40CB7FF0895821B85
:10199000930B0895EE0FFF1F0590F491E02D09942D
:0419A000F894FFCFE9
:1019A40000004000140054000000000029018900D8
:1019B400B6007601E700C500D900000000003A0334
:1019C4000D035004E3020603F302E40200000000E6
:1019D4000805890050047C020D0A0052656C65619B
:1019E40073696E6720636C75746368210050726557
:1019F4007373696E6720636C757463682100525059
:101A04004D207C53504545447C4745415200476531
:101A140061722030313A200053706565642D3E00B8
:101A24002052504D2D3E00474541522030323A203D
:101A340000476561722030333A20004765617220A7
:101A440030343A2000476561722030323A20004732
:0A1A54006561722030353A20000071
:00000001FF
